:100000000A128A11FC2F00308A000408840A820731
:1000100000347734773477342E346A346F34633471
:100020006C34653474346534633468342E3463342A
:100030006F346D3400344C344334443420344C3405
:100040006934623472346134723479342034663401
:100050006F347234003444346534763465346C342F
:100060006F3470346534643420344234793400346D
:100070004D3450344C3441344234203458344334B9
:10008000383400344A346F3463346C346534743437
:08009000653463346834003468
:100B640000300A128A11ED250A128A1101300A1284
:100B74008A11ED25080001300A128A11ED250A12A6
:100B84008A1108300A128A11ED25080001300A1270
:100B94008A11ED250A128A110C300A128A11ED25E8
:100BA4000800F000701CDA2D831203138616DD2D65
:100BB400831203138612F01CE12D0616E22D061291
:100BC400701DE62D8615E72D8611F01DEB2D0615FB
:100BD400080006110800F300831203138613730838
:100BE4000A128A11D3250A128A11831203130617D3
:100BF4001A30F200F830F100F10BFE2DF20BFE2D4D
:100C040000008312031306130800F700F501F60130
:100C14007508770784000A128A1103200A128A11C0
:100C2400003A031908007508770784000A128A112C
:100C340003200A128A110A128A1129260A128A1119
:100C44000130F5070318F60A0030F6070A2EF400FF
:100C540074080F39F1007108F2007408F039F100DA
:100C64007108F3008312031386177308F10004302C
:100C74000310F10CFF3E031D3A2E71080A128A116B
:100C8400D3250A128A118312031306174230F10086
:100C9400F10B4A2E000083120313061372080A1282
:100CA4008A11D3250A128A118312031306174230BC
:100CB400F100F10B5B2E00008312031306130800EE
:100CC400F7007703031D872E74087F3EF50075082F
:100CD400FA007A08F50004300310F50CFF3E031DFA
:100CE4006E2E7508F6007608F8007A080F39F500BC
:100CF4007508F90078080A128A11ED250A128A117A
:100D040079080A128A11ED25080002307706031DBE
:100D140008007408BF3EF5007508FA007A08F5006B
:100D240004300310F50CFF3E031D932E7508F600E6
:100D34007608F8007A080F39F5007508F900780884
:100D44000A128A11ED250A128A1179080A128A11E7
:100D5400ED25080000300A128A11D3250A128A11DF
:100D64008230F500DD30F400F40BB62EF50BB62E10
:100D7400BB2E03300A128A11ED250A128A11213082
:100D8400F5007630F400F40BC52EF50BC52E0000EB
:100D940003300A128A11ED250A128A114830F5002F
:100DA4006C30F400F40BD42EF50BD42E0000033079
:100DB4000A128A11ED250A128A1102300A128A11C6
:100DC400ED250A128A1102300A128A11ED250A123F
:100DD4008A1108300A128A11ED250A128A1100308C
:100DE4000A128A11ED250A128A110C300A128A118C
:100DF400ED250A128A1100300A128A11ED250A1211
:100E04008A1106300A128A11ED250800831603138D
:100E140086010A128A11AC260A128A110A128A1150
:100E2400B2250A128A11F401F40A01300A128A1155
:100E340062260A128A1113300A128A1107260A122C
:100E44008A11F401F40A02300A128A1162260A1283
:100E54008A1130300A128A1107260A128A11333095
:100E6400FD00BB30FC00DF30FB00FB0B372FFC0B1D
:100E7400372FFD0B372F3E2F0A128A11B2250A1283
:100E84008A11F401F40A01300A128A1162260A1244
:100E94008A1123300A128A1107260A128A11F401D0
:100EA400F40A02300A128A1162260A128A113A30AE
:100EB4000A128A1107260A128A113330FD00BB3048
:100EC400FC00DF30FB00FB0B652FFC0B652FFD0BDB
:100ED400652F6C2F0A128A11B2250A128A11F401A5
:100EE400F40A01300A128A1162260A128A110130A8
:100EF4000A128A1107260A128A1183120313A00107
:100F0400A101003021020F30031920020318AB2F76
:100F14000830FD009D30FC000530FB00FB0B902FDA
:100F2400FC0B902FFD0B902F972F0A128A11BD25D1
:100F34000A128A11013083120313A0070318A10AAD
:100F44000030A107003021020F3003192002031CD6
:100F54008A2FA001A101003021020F3003192002C1
:100F64000318D52F0830FD009D30FC000530FB0030
:100F7400FB0BBA2FFC0BBA2FFD0BBA2FC12F0A1291
:100F84008A11C8250A128A11013083120313A0079B
:100F94000318A10A0030A107003021020F30031901
:100FA4002002031CB42F0A128A11B2250A128A11D4
:100FB400F401F40A02300A128A1162260A128A1112
:100FC40065300A128A1129260A128A1153300A122C
:100FD4008A1129260A128A113330FD00BB30FC0025
:100FE400DF30FB00FB0BF42FFC0BF42FFD0BF42F75
:0C0FF400FB2F102F83010A128A11082F16
:02400E007A3FF7
:00000001FF
