:060000000A128A11122809
:10000800FE00030EF0000408F1000A08F200831253
:1000180003137F08F3000A128A112A2C0A128A1184
:100028001528F90183132030840044300A128A11FC
:10003800A72483010A128A11212801308316031389
:100048008600D83081000A128A118B220A128A117E
:100058000A128A119C240A128A11F801F80A01303E
:100068000A128A11EC220A128A111D308312031314
:10007800C4008030C5000A128A113E230A128A1170
:10008800F801F80A02300A128A11EC220A128A11BF
:100098003A3083120313C4008030C5000A128A1153
:1000A8003E230A128A11333083120313DE00BB3059
:1000B800DD00DF30DC00DC0B5F28DD0B5F28DE0BAA
:1000C8005F280A128A119C240A128A11F801F80A78
:1000D80001300A128A11EC220A128A112D30831279
:1000E8000313C4008030C5000A128A113E230A1285
:1000F8008A11F801F80A02300A128A11EC220A124F
:100108008A11443083120313C4008030C5000A12D8
:100118008A113E230A128A11333083120313DE0038
:10012800BB30DD00DF30DC00DC0B9828DD0B9828C5
:10013800DE0B98280A128A119C240A128A11F801E7
:10014800F80A01300A128A11EC220A128A110B30BD
:1001580083120313C4008030C5000A128A113E239B
:100168000A128A1183120313DF01E00100306002D2
:100178000F3003195F020318E328083083120313B2
:10018800DE009D30DD000530DC00DC0BC928DD0B0E
:10019800C928DE0BC9280A128A1191240A128A1169
:1001A800013083120313DF070318E00A0030E00769
:1001B800003060020F3003195F02031CC128DF0101
:1001C800E001003060020F3003195F0203180E29A6
:1001D800083083120313DE009D30DD000530DC009B
:1001E800DC0BF428DD0BF428DE0BF4280A128A1144
:1001F80086240A128A11013083120313DF070318B9
:10020800E00A0030E007003060020F3003195F0297
:10021800031CEC28B0308B00003083120313AD00B0
:100228000030AC000030AB000030AA00AE01AF01D6
:100238004C302F024C3003192E02031C1C298B133F
:100248004E30DC005C08CD002D08D1002C08D00011
:100258002B08CF002A08CE0030300A128A114F210D
:100268000A128A110A128A119C240A128A11F801A8
:10027800F80A01300A128A11EC220A128A11303067
:1002880083120313C4000030C5000A128A113E23EA
:100298000A128A110E2983120313DA004E30D20093
:1002A8005208D5000130CD07FF304D0784000A12EF
:1002B8008A112F220A128A11D2005208DB005B0829
:1002C8000319202A25305B06031976295B08D2001A
:1002D8005A0884005208831380000130D200520863
:1002E800DA075629D6010130CD07FF304D078400C3
:1002F8000A128A112F220A128A11DB00003A031906
:10030800202A643A03198C290D3A03198C29562995
:100318005508840083130008D800840A0008D9000F
:100328000230D2005208D507D91FA3290330D200C2
:100338005208D604D809D909D80A0319D90ADB0101
:10034800DB0A05305B060319CA295B08D20052078D
:10035800013E84000A128A112F220A128A11D30040
:100368000A128A112F220A128A11D400540859023B
:10037800031DC02953085802031CCA290130D200A2
:100388005208DB0705305B06031DA9295608033907
:100398000319D9292D30D2005A0884005208831332
:1003A80080000130D2005208DA075B08D2005208F8
:1003B800D700FF30D2005208D707570A0319562929
:1003C8000A30C7000030C8005708D2005207013E63
:1003D80084000A128A112F220A128A11F4000A12C2
:1003E8008A112F220A128A11F5005908F7005808B5
:1003F800F6000A128A117F230A128A1175088312DD
:100408000313CA007408C9000A128A11F6230A12D3
:100418008A11831203134708303ED3005308DB00C8
:100428005B08D2005A088400520883138000013008
:10043800D2005208DA07DD295A08840083138001A4
:100448000800FF1B2F2A83137F1883170008840ACC
:100458000319FF0A080002308A000408840A820788
:100468000034013400340A34003464340034E8348D
:100478000334103427347734773477342E346A349D
:100488006F3463346C34653474346534633468347D
:100498002E3463346F346D3400344C344334443474
:1004A80020344C34693462347234613472347934AF
:1004B800203466346F34723400344434653476340E
:1004C80065346C346F3470346534643420344234A9
:1004D800793400344D3450344C344134423420346F
:1004E80058344334383400344A346F3463346C3409
:1004F8006534743465346334683400344634723493
:10050800653471342D342034253469340034003096
:100518000A128A116C240A128A1182308312031378
:10052800C500DD30C400C40B972AC50B972A0330D9
:100538000A128A1152240A128A11213083120313D3
:10054800C5007530C400C40BA72AC50BA72AAC2A5E
:1005580003300A128A1152240A128A11483083126F
:100568000313C5006B30C400C40BB82AC50BB82AE6
:10057800BD2A03300A128A1152240A128A11023043
:100588000A128A1152240A128A1102300A128A1196
:1005980052240A128A1108300A128A1152240A12A5
:1005A8008A1100300A128A1152240A128A110C3058
:1005B8000A128A1152240A128A1100300A128A1168
:1005C80052240A128A1106300A128A11522408008B
:1005D80083120313C6004603031D152B78087F3EBC
:1005E800C4004408C9004908C40004300310C40CFE
:1005F800FF3E031DFA2A4408C5004508C7004908FC
:100608000F39C4004408C80047080A128A11522446
:100618000A128A118312031348080A128A115224F3
:1006280008000230831203134606031D08007808E9
:10063800BF3EC4004408C9004908C4000430031080
:10064800C40CFF3E031D232B4408C5004508C70002
:1006580049080F39C4004408C80047080A128A111B
:1006680052240A128A118312031348080A128A11A3
:100678005224080083120313C901CA014908440718
:10068800C7004508C6000318C60AC91BC60383125B
:1006980003134608C8004808FF00470884000A12E8
:1006A8008A1125220A128A11003A031908004908FA
:1006B8004407C7004508C6000318C60AC91BC60375
:1006C800831203134608C8004808FF00470884003F
:1006D8000A128A1125220A128A110A128A11BD23C6
:1006E8000A128A11013083120313C9070318CA0AB0
:1006F8000030CA07422B83120313C401C5017408D2
:1007080075040319B82BC601C60AF51B972B0130CF
:100718000310F40DF50DFF3E031D8C2B0130F8007E
:100728007808C607892B01300310C40DC50DFF3E9C
:10073800031D982B75087702031DA42B74087602F5
:10074800031CAD2B7408F6027508031CF703F702A7
:10075800441401300310F50CF40CFF3E031DAE2BBE
:100768000130C602031D972B4508F5004408F40024
:100778000800F80078080F39F5007508F6007808C1
:10078800F039F5007508F700831203138617770808
:10079800F50004300310F50CFF3E031DCE2B750841
:1007A8000A128A116C240A128A118312031306177B
:1007B8004230F500F50BDE2B0000831203130613FD
:1007C80076080A128A116C240A128A1183120313FA
:1007D80006174230F500F50BEF2B000083120313C8
:1007E8000613080083120313470848040319252C2D
:1007F800CC01CC0AC81B0C2C01300310C70DC80D46
:10080800FF3E031D012C0130CB004B08CC07FE2B0B
:1008180048084A02031D122C47084902031C1A2CD7
:100828004708C9024808031CCA03CA02013003105A
:10083800C80CC70CFF3E031D1B2C0130CC02031D46
:100848000C2C4A08C8004908C70008008B180B1E62
:100858003D2C8B100130AA07003003180130AB077C
:10086800003003180130AC07003003180130AD0721
:10087800472C0B198B1E472C0B110130AE070318A0
:10088800AF0A0030AF077308FF0072088A007108CA
:100898008400700E8300FE0E7E0E0900F70083129E
:1008A8000313861377080A128A116C240A128A1114
:1008B8008312031306171A30F600F830F500F50B0B
:1008C800632CF60B632C0000831203130613080035
:1008D800F400741C732C831203138616762C83126F
:1008E80003138612F41C7A2C06167B2C0612741D30
:1008F8007F2C8615802C8611F41D842C0615080083
:100908000611080001300A128A1152240A128A11AB
:100918000C300A128A115224080001300A128A1176
:1009280052240A128A1108300A128A115224080025
:1009380000300A128A1152240A128A1101300A124E
:100948008A115224080064008001840A04060319ED
:0609580000340406A82C87
:02400E007A3FF7
:00000001FF
